:020000040800F2
:1000000038050020C10100083B1700080116000850
:1000100039170008C9040008711B0008000000001F
:100020000000000000000000000000003F17000872
:10003000C5050008000000003D1700084117000832
:10004000DB010008DB010008DB010008DB01000820
:10005000DB010008DB010008DB010008DB01000810
:10006000DB010008DB010008DB010008DB01000800
:10007000DB010008DB010008DB010008DB010008F0
:10008000DB010008DB010008DB010008DB010008E0
:10009000DB010008DB010008DB010008DB010008D0
:1000A000DB010008DB010008DB010008DB010008C0
:1000B000DB010008DB010008DB010008DB010008B0
:1000C000DB010008DB010008DB010008DB010008A0
:1000D000DB010008291B0008DB010008DB01000828
:1000E000DB010008DB010008DB010008DB01000880
:1000F000DB010008DB010008DB010008DB01000870
:10010000DB010008DB010008DB010008DB0100085F
:10011000DB010008DB010008DB010008DB0100084F
:10012000DB010008DB01000809050008DB0100080D
:10013000DB010008DB010008DB010008DB0100082F
:10014000DB010008DB010008DB010008DB0100081F
:10015000DB010008DB01000815050008DB010008D1
:10016000DB010008DB010008DB010008DB010008FF
:10017000DB010008DB010008DB01000800000000D3
:10018000DB010008DB010008DB010008DB010008DF
:10019000DB010008DB010008DB010008DB010008CF
:1001A000DB010008DB010008DB010008DFF80CD0F0
:1001B00000F078F900480047B11B0008380500201E
:1001C0000648804706480047FEE7FEE7FEE7FEE7F1
:1001D000FEE7FEE7FEE7FEE7FEE7FEE7E5170008BD
:1001E000AD0100082DE9F05F0546002092469B46D0
:1001F00088460646814640241BE02846414647463D
:10020000224600F0E2F853465A46C01A914110D3F4
:1002100011461846224600F0C9F82D1A67EB01086E
:100220004F4622460120002100F0C0F817EB0009DC
:100230004E41201EA4F10104DFDC484631462A4627
:100240004346BDE8F09FD2B201E000F8012B491E01
:10025000FBD270470022F6E710B513460A46044663
:100260001946FFF7F0FF204610BD2DE9F04D81EA59
:10027000030404F0004B21F0004514464FF0000A3F
:1002800023F0004150EA050220D054EA01021DD0BB
:10029000C5F30A570246C5F31303C1F31300C1F3B4
:1002A0000A5640F4801543F48013A7EB0608101B90
:1002B000D64608F2FD3873EB050002D308F10108B9
:1002C00001E092185B41B8F1000F03DA002001460B
:1002D000BDE8F08D00204FF48011064684460EE004
:1002E000171B73EB050705D3121B63EB05030643CE
:1002F0004CEA010C49084FEA300092185B4150EA81
:100300000107EDD152EA030012D082EA040083EA29
:100310000501084305D0101BAB4106D20122002382
:1003200006E000224FF0004302E06FF0010253109C
:100330001AEB06004CEB085110EB0A0041EB0B01E5
:10034000BDE8F04D00F051B870B5C1F30A5201F0AC
:1003500000450024C1F3130140F2FF3341F4801142
:100360009A4201DA002070BD40F233439A42A2F271
:10037000334203DC524200F028F800E090402C4366
:10038000F1D0404270BD00F0004230F000400AD091
:10039000C10D01F56071C0F3160042EA0151C208B7
:1003A000400711437047002001467047202A04DBB4
:1003B000203A00FA02F1002070479140C2F1200378
:1003C00020FA03F3194390407047202A04DB203AB7
:1003D00021FA02F00021704721FA02F3D040C2F165
:1003E0002002914008431946704710B5141E73F15E
:1003F000000408DA401C41F1000192185B411A43E5
:1004000001D120F0010010BD2DE9F04D92469B4630
:1004100011B1B1FA81F202E0B0FA80F220329046D6
:10042000FFF7C4FF04460F4640EA0A0041EA0B0109
:1004300053465A46084313D0114653EA010019D0D7
:10044000C8F140025046FFF7C0FF05460E46504631
:1004500059464246FFF7AAFF084305D0012004E0B1
:1004600020463946BDE8F08D0020054346EAE07697
:100470002C4337430A986305E40AA0EB08000022E6
:10048000FD0A44EA47540A3002D500200146E9E754
:10049000010510196941DDE9084500196941BDE808
:1004A000F04DA2E7064C074D06E0E06840F001037E
:1004B00094E8070098471034AC42F6D3FFF77AFE71
:1004C00088240008A8240008FEE7000070B505464F
:1004D000002400F0C5FC0A490A4BB0FBF1F2596850
:1004E0006A4358688842FCD002D9A0EB010102E0BF
:1004F0006FEA010101440C4401469442F1D370BDFE
:1005000040420F00001000E0014800F0B7B80000C2
:1005100054000020014800F0B1B80000B4000020F1
:1005200001681823CAB2103AB2FBF3F2054B6FF31D
:100530000901032A9B5CC36500D9091D8165084632
:10054000704700006824000810B5014600208B6940
:100550008A6A4FF0C07453B1B3F5005F15D072B121
:10056000012A0CD0022A0AD0032A09D104E01AB1C8
:10057000012A06D0022A03D1C96AC90100D5012087
:1005800010BDC96AA142FAD010BD002AF7D0012AD5
:10059000F2D0022AF3D0032AF3D010BD30B504689C
:1005A000256825F480252560046863608368402BF6
:1005B000036803D099600068C26030BD9A6000682B
:1005C000C16030BD704772B6FEE72DE9F0410446C8
:1005D000876D00F0B9FA064694F835000025022828
:1005E00006D08020606584F834500120BDE8F08199
:1005F0002068016821F0160101602068416921F03E
:1006000080014161206C08B9A06C20B120680168AC
:1006100021F0080101602068016821F001010160FA
:100620000BE000F091FA801B052806D920206065B8
:1006300004F8345F03206070D8E720680068C007C2
:10064000EFD194F85C103F208840B86004F8345F24
:10065000012060700020C9E790F83510022903D00E
:100660008021416501207047052180F83510006820
:10067000016821F001010160002070472DE9F84375
:1006800004464FF00009CDF8009063484FF416512E
:10069000A56D0068B0FBF1F72E6894F85C10082097
:1006A00000FA01F131420FD021680A6852070BD5D8
:1006B0000A6822F004020A6094F85C108840A8607E
:1006C000606D40F00100606594F85C104FF0010827
:1006D00008FA01F0304208D021684969090604D5BA
:1006E000A860606D40F00200606594F85C10042022
:1006F0008840304208D021680968890704D5A8607D
:10070000606D40F00400606594F85C101020884033
:10071000304218D021680968090714D5A8602068FC
:100720000168490304D50068000308D5A16C07E0FF
:100730000168C90503D4016821F008010160216C3A
:1007400009B12046884794F85C1020208840304248
:1007500031D021680968C9062DD5A86094F8350004
:1007600005282068016806D0490347D500680003C2
:100770001DD4616C1CE021F0160101602068416904
:1007800021F080014161206C08B9A06C20B1206883
:10079000016821F00801016094F85C103F20884056
:1007A000A86084F8349084F83580216D1FE0E16BF7
:1007B00009B120468847606D00282BD0606DC007C6
:1007C00014D0052084F835002068016821F001016B
:1007D00001600098401C0090B84203D8206800686F
:1007E000C007F6D184F8349084F83580E16C002994
:1007F00010D001B02046BDE8F04308470168C905A4
:10080000D5D4016821F01001016084F8349084F897
:100810003580CCE7BDE8F883100000202DE9F041D9
:10082000044600F091F906465CB1002584F8345086
:10083000022084F835002068016821F00101016080
:100840000DE00120BDE8F08100F07EF9801B052855
:1008500005D920206065032084F83500F2E7206880
:100860000068C007F0D12268116820480140D4E92F
:1008700001031843D4E9033633431843636918432B
:10088000A3691843E3691843236A18430843616A5C
:10089000042903D1D4E90B131943084310602068DD
:1008A0004069666A20F0070130460E43012704289C
:1008B0000CD1A06A0643E06A40B12046FFF744FE2F
:1008C00020B14020606584F83570BAE72068466141
:1008D0002046FFF725FE94F85C203F21914081607F
:1008E000656584F835700020ACE700003F8010F0AB
:1008F0002DE9F0410446866D90F83400002501286A
:100900000DD0012084F8340094F835700020012FB8
:1009100007D084F8340002252846BDE8F081022083
:10092000FBE7022784F8357060652046FFF736FE46
:1009300094F85C103F208840B0602068016841F066
:1009400016010160206C20B12068016841F00801A7
:1009500001602068016841F001010160DCE70000EE
:100960002DE9F84F00224FF0010803254FF00F0E3C
:100970000B6808FA02F42340A3426ED14E68012EA0
:1009800005D0022E03D0112E01D0122E12D186686E
:100990004FEA420C05FA0CF7BE43CF6807FA0CF792
:1009A000374387604668A6430C79C4F3001494402B
:1009B00034434460C668570005FA07FC8C6826EA91
:1009C0000C06BC403443C4604C68022C01D0122C8D
:1009D00013D1D40800EB8404A346D4F82090540724
:1009E0004FEAD46A0EFA0AF629EA06090E6906FAEF
:1009F0000AF646EA0906CBF8206004680E7924EA74
:100A00000C0406F00306BE40264306604C68E40072
:100A10006FD53B4C266846F480462660246822F059
:100A2000030604F480440094364C3444A446D4F8BD
:100A300008489607360F0EFA06F7BC43324FB84205
:100A400001D100272EE0314FB84201D1012729E022
:100A50002F4FB84202D1022724E04AE02D4FB8427E
:100A600001D103271EE02C4FB84201D1042719E021
:100A70002A4FB84201D1052714E0294FB84201D1CD
:100A800006270FE0274FB84201D107270AE0264F7B
:100A9000B84201D1082705E0244FB84201D1092707
:100AA00000E00A27B7402743CCF80878204E346886
:100AB0004F689C43FF0300D51C4334601C4E361D19
:100AC00034684F689C43BF0300D51C433460184E04
:100AD000083634684F689C43FF0200D51C433460DD
:100AE000134E0C3634684F689C43BF0200D51C433C
:100AF0003460521C102AFFF43BAFBDE8F88F0000B1
:100B0000443802400030014000000240000402402E
:100B100000080240000C0240001002400014024095
:100B200000180240001C0240002002400024024045
:100B3000003C01400069084000D0012070470AB124
:100B4000816170470904FBE7044840680449B0FB31
:100B5000F1F04FF47A71484370470000001000E054
:100B6000007A030A02488168027811448160704764
:100B7000040000200B4810B5016841F400710160C9
:100B8000016841F480610160016841F48071016095
:100B9000032000F061F8002000F006F800F016F8DD
:100BA000002010BD003C02400648016841F0807101
:100BB0000160054800214160016841F001010160C8
:100BC00000207047FCED00E0001000E00A4808B586
:100BD000016841F480410160006800F480400090A9
:100BE0000548001F016841F080510160006800F075
:100BF0008050009008BD000044380240002809DB06
:100C000000F01F02012191404009800000F1E02026
:100C1000C0F8001170470000F0B40E4B1B680C4682
:100C2000C3F30223C3F10705042D00D90425191DC0
:100C3000072901D2002300E0DB1E012606FA05F198
:100C4000491E214099409E40761E16403143F0BC1B
:100C500000F08FBF0CED00E0064900F007020868C5
:100C60004FF6FF03184040EA0220034A1043086091
:100C7000704700000CED00E00000FA052DE9F84394
:100C80001748016841F0805101600068154F00F07D
:100C90008050012600903E64FFF756FF05464FF452
:100CA0007A78114C05E000BFFFF74EFF401B40452E
:100CB0000DD86068C003F7D57E64FFF745FF054691
:100CC000464607E0FFF740FF401BB04202D9032031
:100CD000BDE8F88360688003F4D50020F8E70000E1
:100CE0004038024000000E42007000402DE9F047FD
:100CF0000E46050065D0DFF81481D8F80000F7B281
:100D000000F00F00B04207D288F80070D8F8000059
:100D100000F00F00B04254D128683D4C810712D535
:100D2000400703D5206840F4E05020602878000791
:100D300003D5206840F4604020602068A96820F056
:100D4000F000084320602878C0072DD0304968683B
:100D50000839012812D0022813D0032811D00968BD
:100D6000890700292DDA216821F003010143216060
:100D7000FFF7EAFE814641F2883A0EE009688903EE
:100D8000EFE709688901ECE7FFF7DEFEA0EB090158
:100D9000514502D90320BDE8F0872068696800F05A
:100DA0000C00B0EB810FEFD1D8F80010404601F0F5
:100DB0000F01B14207D90770006800F00F00B04280
:100DC00001D00120E7E72878400705D52068E968C9
:100DD00020F4E050084320602878000706D52068FA
:100DE000296920F4604040EAC100206000F038F832
:100DF0002168084AC1F30311515CC84006490860E4
:100E000006480068FFF7D0FE0020C4E7003C02401F
:100E1000083802407024000810000020080000205C
:100E20000448054900680968044AC1F38221515CFD
:100E3000C840704710000020083802408024000895
:100E40000448054900680968044AC1F34231515C0D
:100E5000C840704710000020083802408024000875
:100E6000154810B5006810F00C02144813D014494E
:100E7000042A0FD0082A0ED10F4C241F22682368A1
:100E800002F03F025B0207D52068C0F38810A0FB88
:100E9000010106E0084610BD2168C1F38811A1FBDD
:100EA00000010023FFF79EF92168C1F30141491CAD
:100EB0004900B0FBF1F010BD083802400024F400F6
:100EC00040787D012DE9F84F04006ED02078DFF8DE
:100ED0003C93C007A9F104054AD009F10400016858
:100EE000C1F38101012908D00068C0F38100022804
:100EF0000AD1D9F80000400206D52868800337D50A
:100F000060680028E1D033E06068B0F5803F10D021
:100F1000B0F5A02F286810D020F480302860286811
:100F200020F4802028606068A8B1FFF70DFE064617
:100F30000DE0286840F48030F4E740F48020286019
:100F4000F7E700BFFFF700FE801B642873D828680E
:100F50008003F7D50CE0FFF7F7FD064605E000BF7C
:100F6000FFF7F2FD801B6428F0D828688003F7D4CF
:100F70002078DFF89C8280074FF0000A3ED5A34816
:100F8000001D016811F00C0F08D00068C0F381004B
:100F900002280BD1D9F80000400207D42868800746
:100FA00016D5E068012800D112E02BE1E068B8B165
:100FB0000120C8F80000FFF7C7FD064605E000BFA6
:100FC000FFF7C2FD801B0228C0D828688007F7D52C
:100FD0002868216920F0F80040EAC10028600DE08F
:100FE000C8F800A0FFF7B0FD064604E0FFF7ACFD2F
:100FF000801B02281FD828688007F7D420780007B4
:1010000022D5824E83486169703671B10121016039
:10101000FFF79AFD074604E0FFF796FDC01B022884
:1010200009D830688007F7D50EE0C0F800A0FFF7B8
:101030008BFD074605E082E0FFF786FDC01B022816
:101040007DD830688007F7D42078400768D5DFF86E
:10105000BCB100270BF13C0BDBF80000C0000BD447
:10106000DBF8001041F08051CBF80010DBF80000F5
:10107000012700F080500090674E3068C00510D402
:10108000306840F480703060FFF75EFD009005E04E
:10109000FFF75AFD0099401A022850D83068C00561
:1010A000F6D55A4EA0686C3601280FD00528306856
:1010B00010D020F001003060306820F00400306073
:1010C000A068B8B1FFF740FD00900FE0306840F035
:1010D0000100F4E740F004003060F7E7FFF734FD6B
:1010E0000099411A41F28830814266D83068800701
:1010F000F4D50EE0FFF728FD009007E0FFF724FD90
:101100000099411A41F28830814256D830688007F0
:10111000F4D42FB1DBF8001021F08051CBF800108F
:10112000A069C8B33949091D0968C1F381010229C1
:101130004AD00228504607D0C8F8600000E03CE0E2
:10114000FFF702FD04463BE04746C8F86000FFF7A2
:10115000FBFC064605E000BFFFF7F6FC801B0228FB
:101160002BD828688001F7D4D4E907010843A16A85
:101170002A4A490802EB0141626A41EA82110843A6
:1011800094F82C1040EA0161C9F80010012038667B
:10119000FFF7DAFC044606E036E000BFFFF7D4FCB8
:1011A000001B022809D828688001F7D52CE000BF71
:1011B000FFF7CAFC001B022802D90320BDE8F88F04
:1011C00028688001F4D41FE00128F7D0D9F8000086
:1011D000E26900F48001914214D1226A00F03F01DB
:1011E00091420FD147F6C071626A0140914209D124
:1011F000A26A00F44031914204D1E16A00F07060CB
:10120000884201D00120D9E70020D7E70438024006
:1012100000004742800E4742007000400000FFFF80
:1012200010B504460068416994F83920C1F3C01133
:10123000212A0BD151B1416921F080014161206B1C
:1012400008B1FFF7C2F9204600F054FB206841695D
:1012500094F83A20C1F38011222A0BD151B141698F
:1012600021F040014161606B08B1FFF7AEF9204603
:1012700000F032FB002010BD7047000070B502681E
:1012800004461068D168536910F00F0F52D003F074
:10129000010501F490762E435FD0C20705D0CA0540
:1012A00003D5E26B42F00102E263420705D5DA079B
:1012B00003D0E26B42F00202E263820705D5DA074F
:1012C00003D0E26B42F00402E263020707D501F0AB
:1012D00020022A4303D0E26B42F00802E263E26B91
:1012E000002A33D0800604D5880602D5204600F0B7
:1012F0000AFB20684069E16BC0F38010090700D445
:1013000028B3204600F0E8FA2068416949061AD55A
:10131000416921F040014161606BA0B11B49016549
:10132000606BFFF799F9002810D0606B016DBDE884
:1013300070400847830610D58B060ED52046BDE8C1
:10134000704000F0E0BA2046FFF796FF70BD2046DF
:10135000FFF792FF0020E06370BD030606D50B0681
:1013600004D52046BDE8704000F0ACBB4006F3D584
:101370004806F1D5D168204621F04001D1602021F6
:1013800084F8391000F03AF970BD00000118000827
:1013900070B5040004D094F83900002510B106E0BF
:1013A000012070BD84F83850204600F023F8242036
:1013B00084F839002068C16821F40051C1602046DA
:1013C00000F0ECFA2068016921F490410161206885
:1013D000416921F02A0141612068C16841F400514E
:1013E000C160E563202084F8390084F83A000020C9
:1013F00070BD00002DE9F04387B006461421684611
:10140000FEF728FF3149306888425BD1304800241C
:10141000016841F010010160006800F010000590C3
:101420002B481438016841F00101016000686946E9
:1014300000F0010005904FF4C06000900220CDE95B
:10144000010403200390072004902248FFF788FA44
:10145000224D21484FF000672860C5E901744FF420
:101460008068C5E903486C614FF48039AC61C5E917
:10147000074928466C62FFF7D1F908B1FFF7A3F8D6
:101480007563AE63154D144860357830E5E80207A2
:101490004020A5E81101114845F814496030AC61BD
:1014A000C5E907496C62FFF7B9F908B1FFF78BF896
:1014B0003563002211462520AE63FFF7ADFB2520E2
:1014C000FFF79CFB07B0BDE8F0830000001001406F
:1014D00044380240000002404064024054000020B2
:1014E000F8B5044690F83A0020283CD1C1B3BAB30D
:1014F00094F83800012836D0012084F83800A16221
:10150000A2850025E563222084F83A00636B174822
:10151000D863636B16481864636B1648D864606BB5
:10152000134605650846666B216802463046091D6C
:10153000FFF7DEF9206801684168009184F83850AF
:10154000C16841F48071C1602068416941F00101C6
:1015500041612068416941F0400141610020F8BDCE
:10156000FFE70120FBE70220F9E700005B18000815
:1015700097180008111800087047704770B50446A6
:1015800090F83900202830D169B362B394F838005C
:1015900001282AD0012084F838002162A284E28444
:1015A0000025E563212084F83900236B1048D863B7
:1015B000236B10481864236B0F48D864206B1346C4
:1015C00005652668206B321DFFF792F921686FF0E0
:1015D0004000086084F838502068416941F080017B
:1015E0004161002070BD012070BD022070BD00006F
:1015F000A1180008CF18000811180008704770479C
:10160000FEE70000124800B5026887B0002142F0F2
:1016100001020260026802F001020592026842F0D3
:1016200004020260006800F0040005900120CDE98A
:1016300000010220029069460648FFF791F94FF435
:101640000050009069460448FFF78AF907B000BDD2
:1016500030380240000002400008024070B50C46DD
:101660000546FFF767FA012801D0002070BD21462A
:101670002846FFF75FFA0128F9D0012070BD00006D
:101680000D4808B5016841F480010160006800223E
:1016900000F48000009011463A20FFF7BDFA3A208E
:1016A000FFF7ACFA002211464620FFF7B5FABDE875
:1016B00008404620FFF7A2BA30380240094808B572
:1016C000016841F080010160016801F08001009132
:1016D000016841F001010160006800F00100009024
:1016E00008BD00003038024010B5114C0F480C21E5
:1016F00020604FF4E13060600020A060E060C4E949
:101700000401A061E0612046FFF742FE08B1FEF748
:101710005AFF2068C16841F01001C160BDE8104067
:10172000642204490248FFF7DBBE000000100140BC
:101730001400002014010020FEE7FEE77047704708
:10174000FFF710BA30B593B030216846FEF782FD3E
:1017500014210CA8FEF77EFD20480025016841F009
:1017600080510160006800F0805011901C480168B1
:1017700041F4404101600068022400F440401190AF
:1017800001200090000401908001CDE9064019205D
:1017900008904FF4B470CDE9090404200B9068461A
:1017A000FFF790FB08B172B6FEE7FFF767FA08B1E2
:1017B00072B6FEE70CA90F2081E831004FF4A0506B
:1017C0000F904FF48050109005210CA8FFF78EFA6F
:1017D000002801D072B6FEE713B030BD4038024099
:1017E000007000400548016841F470010160034940
:1017F0004FF00060803908607047000088ED00E01D
:1018000010B5806B0021C185C184FFF735FD10BD87
:1018100070B5846B2068406994F83910C0F3C0102B
:101820000025212904D118B1E584204600F062F892
:101830002068406994F83A10C0F38010222904D13E
:1018400018B1E585204600F047F8E06B40F0100045
:10185000E0632046FFF710FD70BD10B50146806BB8
:1018600009680968C90513D40021C1850168CA68DF
:1018700022F48072CA6001684A6922F001024A615A
:1018800001684A6922F040024A61202180F83A103A
:10189000FFF772FE10BD10B5806BFFF76EFE10BD36
:1018A00010B50146806B09680968C9050CD4002190
:1018B000C18401684A6922F080024A610068C168F7
:1018C00041F04001C16010BDFFF798FE10BD10B59A
:1018D000806BFFF794FE10BD0168CA6822F4907215
:1018E000CA6001684A6922F001024A61202180F839
:1018F0003A1070470168CA6822F0C002CA6020210D
:1019000080F83910704710B590F83A10222901D0AC
:10191000022010BD8168B1F5805F11D001690029F6
:1019200001681FD0496801F07F03816A4A1C826206
:101930000B70C18D491E0904090CC18518D02BE01C
:101940000269816A002A0268526805D0D2B20A8010
:10195000816A491C8162ECE7C2F308020A80816A4D
:10196000891CF7E74A68816A4B1C83620A70E0E7CA
:101970000168CA6822F02002CA600168CA6822F4BD
:101980008072CA6001684A6922F001024A6120211E
:1019900080F83A10FFF7F0FD002010BD2DE9F0416E
:1019A000044600680169E26821F440511143016175
:1019B0002169A068E269084361691143084321680D
:1019C000CA6849F20C639A430243CA6020684169BD
:1019D000A26921F4407111434161E069192764252E
:1019E0003226B0F5004F354A354920684FF00008DF
:1019F00006D0884201D0904236D1FFF721FA35E077
:101A0000884201D0904202D1FFF71AFA01E0FFF7B5
:101A100007FA61684A18A0FB070148EB0803FEF7C4
:101A2000E1FB0146B0FBF5F00201B1FBF5F06FF010
:101A30001803584301EB800006EBC000B0FBF5F043
:101A400000F0F80002EB4002B1FBF5F0584301EB67
:101A5000800006EBC000B0FBF5F000F00700216845
:101A600010448860BDE8F081FFF7DAF961688B0FF8
:101A70008A00A0FB0701FEF7B5FB0146B0FBF5F0BD
:101A80006FF01802504301EB800006EB0010B0FB32
:101A9000F5F000F0F002B1FBF5F002EB0012B1FB43
:101AA000F5F06FF01803584301EB800006EB0010CF
:101AB000B0FBF5F000F00F00D1E70000001401408A
:101AC0000010014090F83910212901D00220704700
:101AD0008168B1F5805F016A0BD04A1C026202681E
:101AE00009785160C18C491E0904090CC1840ED0CB
:101AF00017E009880268C1F30801516001690029F3
:101B0000016A02D0491C0162ECE7891CFBE701680D
:101B1000CA6822F08002CA600068C16841F04001D2
:101B2000C1600020704700000D4808B500680168DA
:101B3000C1F3001179B10168406800900848FFF7CF
:101B40006FFB0848006840680749C0F164000870EE
:101B5000064901200870BDE808400148FFF78EBB28
:101B6000140000205400002000000020010000208C
:101B7000FEE70907090E002804DB00F1E02080F8E9
:101B80000014704700F00F0000F1E02080F8141DF1
:101B9000704702E008C8121F08C1002AFAD1704736
:101BA0007047002001E001C1121F002AFBD17047DD
:101BB00070B52DED028BFEF7DDFFFFF7C3FDFFF7DC
:101BC0007DFDFFF75DFDFFF78FFDFFF71BFD00F0CB
:101BD000CBF85E4C2078012805D064225C495D4832
:101BE000FFF77EFCF6E75C4D2A7859495948FFF724
:101BF000C5FC4FF47A763046FEF768FC0020207072
:101C0000564C01212046FFF729FD0128F9D1002477
:101C10009FED538ADFED538A89E04D48005D5128DE
:101C20006FD00CDCA0F142000E287BD2DFE800F080
:101C3000707A4D6A5E7A367A7A252B7A475866280A
:101C400056D008DC52280DD055282DD0622861D0FE
:101C5000642867D13BE06C2817D0722804D075281F
:101C600060D123E0002100E00121F0EE000AB0EE97
:101C7000480A304600F03CFB54E00021F0EE000A38
:101C8000B0EE680AF5E7002100E00121F0EE000A5D
:101C9000B0EE480A304600F0CDFA43E00021F0EE05
:101CA000000AB0EE680AF5E7002100E00121F0EE3D
:101CB000000AB0EE480A304600F078FB32E000211E
:101CC000F0EE000AB0EE680AF5E7002100E001211D
:101CD000F0EE000AB0EE480A304600F0EFF921E0DD
:101CE0000021F0EE000AB0EE680AF5E7002100E0FE
:101CF0000121F0EE000AB0EE480A304600F040FA4A
:101D000010E01CE00021F0EE000AB0EE680AF4E7F3
:101D1000002100E00121F0EE000AB0EE480A304652
:101D200000F06AF94CF25030FEF7D0FB641C2878C2
:101D30008442FFF672AFBDEC028B002070BD002123
:101D4000F0EE000AB0EE680AE9E7000001000020AA
:101D500014010020140000200000002000000240B8
:101D60000000B442000034432DE9F04F9B4887B097
:101D7000016841F080010160016801F08001059176
:101D8000016841F008010160016801F00801059156
:101D9000016841F080010160016801F08001059156
:101DA000016841F001010160016801F00101059144
:101DB000016841F001010160016801F00101059134
:101DC000016841F008010160016801F00801059116
:101DD000016841F001010160016801F00101059114
:101DE000016841F008010160016801F008010591F6
:101DF000016841F001010160016801F001010591F4
:101E0000016841F002010160016801F002010591E1
:101E1000016841F010010160016801F010010591B5
:101E2000016841F002010160016801F002010591C1
:101E3000016841F010010160016801F01001059195
:101E4000016841F010010160016801F01001059185
:101E5000016841F010010160016801F01001059175
:101E6000016841F480710160016801F4807105919D
:101E7000016841F002010160016801F00201059171
:101E8000016841F0100101600068012400F01000B9
:101E900005901027CDE90074022569465048CDE928
:101EA0000245FEF75DFD202669464E480096FEF786
:101EB00057FD69464A480096FEF752FDCDE90054A9
:101EC00069464948CDE90245FEF74AFD4FF004094D
:101ED00069464548CDF80090FEF742FD4FF0400AB4
:101EE00069464048CDF800A0FEF73AFDCDE9007400
:101EF00069463D48CDE90245FEF732FD4FF008083E
:101F000069463848CDF80080FEF72AFD6946364814
:101F1000CDF80080FEF724FDE002CDE9000469461B
:101F20003248CDE90245FEF71BFDDFF8C4B0694633
:101F30005846CDF80090FEF713FD4FF480696946CE
:101F40002A48CDF80090FEF70BFDCDE90064694604
:101F50005846CDE90245FEF703FD6946584600970D
:101F6000FEF7FEFC69465846CDF80080FEF7F8FC07
:101F70002002CDE9000469461E48CDE90245FEF77E
:101F8000EFFC694619480096FEF7EAFC6946584698
:101F9000CDF800A0FEF7E4FC012220211048FEF756
:101FA000CEFD012240210F48FEF7C9FD0122082184
:101FB0000D48FEF7C4FD012249460C48FEF7BFFD5F
:101FC000012208215846FEF7BAFD01224021584659
:101FD000FEF7B5FD07B0BDE8F08F000030380240D5
:101FE000001C0240000C02400000024000040240BD
:101FF00000100240002002402DE9F04105462DED81
:10200000048B0C46B0EE408A10EE900AFEF7BBF946
:1020100041EC100B53EC102B9FED230B51EC100BEC
:10202000FEF723F941EC190B18EE100AFEF7ABF995
:1020300053EC192BFEF719F9FEF786F906461C48F2
:102040004FF48071012C01D014B104E0012200E0B2
:102050000022FEF774FDDFF85C800022402140463C
:10206000FEF76DFD0024144F05EBD5750FE0202120
:102070003846FEF764FD6810FEF728FA002220219A
:102080003846FEF75CFD6810FEF720FA641CB44287
:102090004FF00102EBDBBDEC048B40464021BDE874
:1020A000F041FEF74CBD0000CDCCCCCCCCCCFC3FFD
:1020B0000020024000100240000402402DE9F047D9
:1020C00005462DED048B0C46B0EE408A10EE900ACA
:1020D000FEF759F941EC100B53EC102B9FED240B3C
:1020E00051EC100BFEF7C1F841EC190B18EE100A79
:1020F000FEF749F953EC192BFEF7B7F8FEF724F970
:102100001D4F06464FF40061012C01D014B105E0CB
:10211000012200E000223846FEF711FD4FF48069ED
:1021200000224946B8463846FEF709FD0024134F01
:1021300005EBD5750FE004213846FEF700FD681069
:10214000FEF7C4F9002204213846FEF7F8FC6810B7
:10215000FEF7BCF9641CB4424FF00102EBDBBDECAE
:10216000048B49464046BDE8F047FEF7E8BC000056
:10217000CDCCCCCCCCCCFC3F0004024000100240C3
:102180002DE9F04106462DED048B0C46B0EE408A59
:1021900010EE900AFEF7F7F841EC100B53EC102B01
:1021A0009FED210B51EC100BFEF75FF841EC190B82
:1021B00018EE100AFEF7E7F853EC192BFEF755F866
:1021C000FEF7C2F81A4D0746012C01D014B106E003
:1021D000012200E0002220212846FEF7B0FC002268
:1021E00008212846FEF7ABFC002406EBD6760FE06C
:1021F00010212846FEF7A3FC7010FEF767F90022B5
:1022000010212846FEF79BFC7010FEF75FF9641C56
:10221000BC424FF00102EBDBBDEC048B28460821E9
:10222000BDE8F041FEF78BBCCDCCCCCCCCCCFC3F98
:10223000001002402DE9F04105462DED048B0C46BF
:10224000B0EE408A10EE900AFEF79DF841EC100BBC
:1022500053EC102B9FED220B51EC100BFEF705F801
:1022600041EC190B18EE100AFEF78DF853EC192B00
:10227000FDF7FBFFFEF768F81B4F0646012C01D067
:1022800014B106E0012200E0002202213846FEF7E8
:1022900056FCDFF85880002240214046FEF74FFCF4
:1022A000002405EBD5750FE004213846FEF747FC06
:1022B0006810FEF70BF9002204213846FEF73FFCB8
:1022C0006810FEF703F9641CB4424FF00102EBDB27
:1022D000BDEC048B40464021BDE8F041FEF72FBC29
:1022E000CDCCCCCCCCCCFC3F00000240000C02405A
:1022F0002DE9F04105462DED048B0C46B0EE408AE9
:1023000010EE900AFEF73FF841EC100B53EC102B47
:102310009FED220B51EC100BFDF7A7FF41EC190BC1
:1023200018EE100AFEF72FF853EC192BFDF79DFF5E
:10233000FEF70AF81B4F0646012C01D014B106E047
:10234000012200E0002210213846FEF7F8FB0022AF
:102350002021B8463846FEF7F2FB0024124F05EB69
:10236000D5750EE03846FEF7EAFB6810FEF7AEF8CA
:10237000002220213846FEF7E2FB6810FEF7A6F89F
:10238000641CB4424FF001024FF02001EADBBDECC7
:10239000048B4046BDE8F041FEF7D1BBCDCCCCCCA0
:1023A000CCCCFC3F001C0240000C02402DE9F04167
:1023B00005462DED048B0C46B0EE408A10EE900AD7
:1023C000FDF7E1FF41EC100B53EC102B9FED220BBE
:1023D00051EC100BFDF749FF41EC190B18EE100AF8
:1023E000FDF7D1FF53EC192BFDF73FFFFDF7ACFFD5
:1023F0001B4F0646012C01D014B106E0012200E07B
:10240000002210213846FEF79AFB00220821B84628
:102410003846FEF794FB0024124F05EBD5750EE00D
:102420003846FEF78CFB6810FEF750F800220821B2
:102430003846FEF784FB6810FEF748F8641CB44287
:102440004FF001024FF00801EADBBDEC048B40467F
:10245000BDE8F041FEF773BBCDCCCCCCCCCCFC3F7F
:1024600000000240000C0240000610160006101684
:102470000000000000000000010203040607080934
:102480000000000001020304A8240008000000204E
:1024900014000000921B0008BC2400081400002057
:1024A00024050000A21B000800000000010000003D
:0C24B00010000000000000000024F400F8
:04000005080001AD41
:00000001FF
